:100000000C9432010C9452010C9452010C94520144
:100010000C9452010C9452010C9452010C94520114
:100020000C9452010C9495020C9452010C945201C0
:100030000C9452010C9452010C9452010C945201F4
:100040000C9452010C9452010C9452010C945201E4
:100050000C9452010C9452010C9452010C945201D4
:100060000C9452010C9452010C9452010C945201C4
:100070000C9452010C94C6010C9452010C94520140
:100080000C9452010C9452010C9452010C945201A4
:100090000C948A010C94A9010C9452010C94520105
:1000A0000C9452010C9452010C9452010C94520184
:1000B0000C9452010C9452010C9452010C94540172
:1000C0000C9452010C9452010C9452010C94520164
:1000D0000C9452010C9452010C9452010C94520154
:1000E0000C945201084AD73B3BCE016E84BCBFFD45
:1000F000C12F3D6C74319ABD56833DDA3D00C77FF8
:1001000011BED9E4BB4C3E916BAAAABE0000008090
:100110003F05A84CCDB2D44EB93836A9020C50B91F
:10012000918688083CA6AAAA2ABE000000803F004B
:10013000426F6F74656400556E61626C6520746F08
:10014000206C6F63617465207365676D656E7420E4
:10015000666F72206C6F6F6B616865616420706F91
:10016000696E7400456E64206F662070617468204B
:100170007265616368656400556E61626C652074C8
:100180006F206C6F63617465207365676D656E7455
:1001900020666F72206F7274686F676F6E616C207B
:1001A00070726F6A656374696F6E00466F6C6C6F16
:1001B00077657220706172616D657465727320730A
:1001C000657400466F6C6C6F77657220726573653D
:1001D0007400466F6C6C6F77657220706175736523
:1001E0006400466F6C6C6F77657220737461727413
:1001F0006564004E6F207061746820617661696C7F
:1002000061626C650050617468206F6620257520FE
:10021000706F696E74732C20312E2825692C256926
:100220002920322E2825692C256929202E2E2E00E2
:10023000466F6C6C6F7765723A206F7574206F66CD
:10024000206D656D6F7279206F7220706174682007
:1002500068617320746F6F2066657720706F696EB8
:100260007473000011241FBECFEFD1E2DEBFCDBFFB
:100270001EBA12E0A0E0B2E0E4E0FEE300E00BBF53
:1002800002C007900D92A236B107D9F729E0A2E685
:10029000B2E001C01D92A736B207E1F70E94D00478
:1002A0000C94001F0C948A082F922FB6CF93DF93E3
:1002B000EF93FF93FF27C0918702D0918802219688
:1002C000C0938702D0938802C0918902D0918A029C
:1002D000CF1FDF1FC0938902D0938A02F09904C018
:1002E000F09AE6E2F2E003C0F098E4E2F2E0C081C6
:1002F000D1812296D183C083C0FD05C0F29B03C08B
:10030000EFECE0937A00FF91EF91DF91CF912FBE58
:100310002F9018952F922FB62F93EF93FF93209144
:10032000CE00E0918B02E395EF77F0918C02FE17FF
:1003300061F0E0938B02F0E0E75FF84F2083FF91DC
:10034000EF912F912FBE2F90189521E020938F02CF
:10035000F6CF2F922FB6EF93FF93F0918D02E0919D
:100360008E02FE1779F0E395EF7FE0938E02F0E0C6
:10037000E757F84FE081E093CE00FF91EF912FBE59
:100380002F901895E8E9E093C900F7CF2F922FB688
:100390007F938F939F93CF93DF93EF93FF93C091BE
:1003A0008908D0918A08FE01E85BFF4F89E0E336B7
:1003B000F807B1F1818180937C00828180937B007A
:1003C000F0938A08E0938908E881E395EF71E88368
:1003D000FF27EE0FFF1FEC0FFD1F70859091780037
:1003E0009087791B8185909179009187890B982F4F
:1003F000990F990BEC81E71BEC83ED81E80BED8302
:10040000EE81E90BEE83EB81EF77EB83FF91EF91C8
:10041000DF91CF919F918F917F912FBE2F90189553
:10042000EBE8F8E0C7CFEAE0F1E08081887F8083E5
:10043000EBE0F1E080818760808380910901877023
:10044000809364020895809164020895809162020D
:10045000089580910901982F977020916402921756
:1004600021F180FD0AC020916202309163022F5F6A
:100470003F4F309363022093620281FD0AC02091B6
:100480006202309163022F5F3F4F309363022093EB
:10049000620282FD0AC020916202309163022F5FE6
:1004A0003F4F309363022093620290936402089559
:1004B00080910602909107020895EAE0F1E08081C0
:1004C000807F8083E8E6F0E0808181608083EBE6D6
:1004D000F0E080818F60808383B18F7080936902A8
:1004E0000895809165029091660208958091670257
:1004F000909168020895FC019FB7F89420916502DD
:100500003091660231832083209167023091680226
:10051000FB013183208310926602109265021092D3
:100520006802109267029FBF08951F920F920FB644
:100530000F9211240BB60F922F933F934F935F931B
:100540006F937F938F939F93AF93BF93CF93DF93DB
:10055000EF93FF93C3B1DC2FDF70809169028D2789
:1005600080FF77C02091670230916802C0FFE8C029
:10057000C1FFFEC021503109309368022093670209
:1005800081FDE8C082FF77C020916502309166024C
:10059000C2FFCBC0C3FFCBC02F5F3F4F309366027B
:1005A0002093650283FF06C0215031093093660213
:1005B000209365020E943B08813009F471C00E94BB
:1005C0003B08833041F00E943B08843021F00E94B8
:1005D0003B08853039F58091060290910702863FED
:1005E0002FEF920709F4F3C0209169022D2720FF15
:1005F00005C00197909307028093060221FF05C072
:100600000197909307028093060222FF05C001978D
:10061000909307028093060223FD74C018161906F2
:100620000CF079C0D0936902FF91EF91DF91CF91E7
:10063000BF91AF919F918F917F916F915F914F91FA
:100640003F912F910F900BBE0F900FBE0F901F90F8
:10065000189581FF97CF2091670230916802C1FD04
:10066000A2C0C0FF77C021503109309368022093A7
:10067000670282FD89CF83FF9DCF20916502309173
:100680006602C3FF7EC0C2FD8FCF2F5F3F4F309306
:100690006602209365020E943B08813009F08FCFEB
:1006A0002091060230910702263F8FEF380709F4A8
:1006B000BDC0809169028D2780FF53C0C0FF7BC001
:1006C000C1FD7BC0215031093093070220930602FF
:1006D00082FF76C0C2FF6AC0C3FF6AC021503109E1
:1006E0003093070220930602121613060CF467CF0C
:1006F00086EF9FEF909307028093060286E00E94A8
:1007000038085DCF01979093070280930602181670
:1007100019060CF487CF86EF9FEF90930702809322
:10072000060286E00E9438087DCFC3FF35CF2150F6
:100730003109309366022093650283FF3BCFA5CF3A
:10074000C1FD28C02150310930936802209367020F
:1007500081FF18CF2F5F3F4F3093680220936702CD
:1007600011CF81FFB5CFC1FF80C0C0FFB1CFAACFED
:100770002F5F3F4F309368022093670281FF02CFC3
:1007800072CFC2FF11CF2F5F3F4F3093660220938D
:10079000650281CF2F5F3F4F30936802209367023D
:1007A00081FD61CFEFCEC0FDD5CF5DCFC3FF96CF2A
:1007B00083FD94CF99CFC1FD85CF81FD83CF88CFB5
:1007C00083FF92CFC3FF4EC0C2FD8ECF87CF0E9462
:1007D0003B08833049F00E943B08843029F06BEDE0
:1007E0007FE089E490E404C06BED7FE089EC9FE357
:1007F0002091140230911502409116025091170277
:100800000E94B619209118023091190240911A02E3
:1008100050911B020E942B170E949D17AB01BC0137
:10082000CA015093070240930602DECE20911802BF
:100830003091190240911A0250911B026DEC7CE438
:100840008DE793E40E942B1723E333E343E150E465
:100850000E94B6190E949D179B0170930702609336
:10086000060227CFC2FF40CF39CFC0FD31CF2ACFFC
:100870000C94B0060C94B9068F929F92AF92BF92DF
:10088000CF92DF92EF92FF920F931F93CF93DF935C
:10089000CDB7DEB76D970FB6F894DEBF0FBECDBFF4
:1008A0008C01CE0145960E94C408F80180818230F7
:1008B00009F462C0E0F0843011F108F459C08530C9
:1008C00019F481E00E9438086D960FB6F894DEBFE7
:1008D0000FBECDBFDF91CF911F910F91FF90EF9091
:1008E000DF90CF90BF90AF909F908F900895882316
:1008F000D9F1813049F785E00E943808E5CFCE0173
:1009000001960E94A70669817A818B819C81CD80A6
:10091000DE80EF80F8849E01235F3F4F3D8F2C8F58
:1009200022E02B8F0E949D174B015C017E876D8713
:10093000C701B6010E949D17788B6F879A8A898AB2
:1009400020E030E04AE753E4C701B6010E944316B5
:100950000E949D177C8B6B8BCE014B960E94AA0D3B
:1009600081E00E94B00DB0CF86E00E943808ACCF85
:1009700084E00E943808A8CF83E00E943808A4CF02
:100980007F936F938FE292E09F938F9383E08F9397
:100990000E949C0B0F900F900F900F900F90089556
:1009A000CF93DF93CDB7DEB7A2970FB6F894DEBF33
:1009B0000FBECDBF8FEE809364008FE38093650000
:1009C00081B1806C81B90E94CE090E94190B60EC44
:1009D00074E080E00E94210B6CE374E086E00E94EA
:1009E000210B68E374E082E00E94210B6AE374E06B
:1009F00085E00E94210B0E9407090E94A20881E065
:100A00000E94E1090E94A00D0E9413020E945D0253
:100A1000789480E391E09F938F9382E08F930E947C
:100A2000D60B0F900F900F9010E423C0F09905C0E3
:100A3000809124029091250204C080912602909119
:100A4000270220916A0230916B02AC01421B530BCA
:100A5000483C510560F090936B0280936A020E94BB
:100A60003F1640E150E0BC0184E00E942A0B0E9446
:100A7000100C0E9429020E946108F09905C0809123
:100A800024029091250204C08091260290912702B1
:100A90002091720230917302AC01421B530B9A01F8
:100AA000243F314038F0909373028093720282B1F8
:100AB000812782B9F09905C0809124029091250286
:100AC00004C08091260290912702209170023091FB
:100AD0007102FC01E21BF30B9F012C323140E8F163
:100AE00090937102809370020E94230289830E9476
:100AF00026028A830E9476029C838B830E94710265
:100B00009E838D8380E00E94420A98878F8381E0D4
:100B10000E94420A9A87898782E00E94420A9C8743
:100B20008B871E861D86188A1F860E9458029A8B04
:100B3000898BCE0147960E94A7068F8D98A1A9A107
:100B4000BAA18B8B9C8BAD8BBE8B46E150E0BE0176
:100B50006F5F7F4F81E00E942A0BF09905C0809162
:100B600024029091250204C08091260290912702D0
:100B700020916E0230916F02AC01421B530B443145
:100B8000510570F090936F0280936E020E94C2062E
:100B90000E9435084CE050E0BC0182E00E942A0B24
:100BA000F09905C0809124029091250204C08091A3
:100BB00026029091270220916C0230916D02FC0177
:100BC000E21BF30B749708F431CF90936D0280937E
:100BD0006C020E943C167C01FC018081882309F490
:100BE00025CF0E9435086C010E94D60D882369F03C
:100BF000B701675F7F4FC6010E946F0641E150E079
:100C0000B70183E00E942A0B11CF0E948B0983E079
:100C10000E94B00DF3CF8F929F92AF92BF92CF926E
:100C2000DF92EF92FF92CF93DF93EC017B0128815B
:100C300039814A815B81FB0160817181828193816D
:100C40000E9442164B015C012C813D814E815F81E7
:100C5000F70164817581868197810E944216A50102
:100C600094010E94C216288539854A855B850E94B9
:100C700042166B017C012BED3FE049E450EC0E94F1
:100C8000211787FD21C02BED3FE049E450E4C70167
:100C9000B6010E940219181654F42BED3FE049ECFE
:100CA00050E4C701B6010E9442166B017C01C701E6
:100CB000B601DF91CF91FF90EF90DF90CF90BF9082
:100CC000AF909F908F9008952BED3FE049EC50E45A
:100CD000C701B6010E9443166B017C01E8CFCF9299
:100CE000DF92EF92FF920E940B066B017C012DECCC
:100CF0003CEC4CE45DEB0E94211787FD1EC02DECFF
:100D00003CEC4CE45DE3C701B6010E9402191816E1
:100D100054F068EB7BE088EB9BE0FF90EF90DF9076
:100D2000CF900C94530960E777E188EE93E0FF9051
:100D3000EF90DF90CF900C94530968EE73E080E75A
:100D400097E1FF90EF90DF90CF900C9453092CE047
:100D5000E8E0F2E0DC0101900D922A95E1F70895B8
:100D6000FC0190E1A4E1B2E001900D929A95E1F7C7
:100D70000895FC019CE0A4E7B2E001900D929A95E1
:100D8000E1F708954F925F926F927F928F929F92B8
:100D9000AF92BF92CF92DF92EF92FF92CF93DF9309
:100DA000CDB7DEB728970FB6F894DEBF0FBECDBF24
:100DB000BE016F5F7F4FCE0103960E947B02E980E8
:100DC000FA80CB80DC80B7016C197D0909F418C169
:100DD000072E000C880B990B0E94D5172B013C01A4
:100DE0008091140290911502A0911602B091170201
:100DF0008D839E83AF83B887B7016C0D7D1D072E51
:100E0000000C880B990B0E94D517A30192010E9438
:100E10002B176B017C0120E030E040E05FE36D8147
:100E20007E818F8198850E94B6199B01AC01C70114
:100E3000B6010E94B6194B015C01C0901002D0901F
:100E40001102E0901202F0901302209118023091EA
:100E5000190240911A0250911B02C301B2010E9473
:100E6000B6192D813E814F8158850E942B17A7010D
:100E700096010E944316562E672E782E492E0E9408
:100E8000231A6D837E838F839887C701B6010E94E2
:100E9000231A9B01AC016D817E818F8198850E9410
:100EA0004216A50194010E94B6196D837E838F833B
:100EB0009887C701B6010E9426176B017C01652D3A
:100EC000762D872D942D0E9426179B01AC01C7011A
:100ED000B6010E944216A50194010E94B6196B0149
:100EE0007C012BED3FE049EC50E4652D762D872DFC
:100EF000942D0E94021918160CF468C0852D962DA9
:100F0000A72DB42D8093100290931102A09312028A
:100F1000B093130220E030E0A901652D762D872DD6
:100F2000942D0E94211787FF12C02BED3FE049EC62
:100F300050E4652D762D872D942D0E9443166093E5
:100F400010027093110280931202909313022D816C
:100F50003E814F815885609108027091090280910D
:100F60000A0290910B020E9443166093080270934C
:100F7000090280930A0290930B02A70196016091E7
:100F80000C0270910D0280910E0290910F020E944E
:100F9000431660930C0270930D0280930E0290939F
:100FA0000F0228960FB6F894DEBF0FBECDBFDF91BB
:100FB000CF91FF90EF90DF90CF90BF90AF909F9038
:100FC0008F907F906F905F904F9008952BED3FE052
:100FD00049EC50E4652D762D872D942D0E94421604
:100FE000562E672E462F572FBC0140931002509368
:100FF00011026093120270931302782E492E8ACF49
:10100000B701FF0C880B990B0E94D517209118028D
:101010003091190240911A0250911B020E94B61998
:101020006B017C018090100290901102A09012023E
:10103000B0901302C501B4010E9426179B01AC01B8
:10104000C701B6010E94B6196D837E838F8398878E
:10105000C501B4010E94231A9B01AC01C701B6016E
:101060000E94B6196B017C0172CF88E092E008956E
:10107000809386020895809186020895CF93DF932E
:1010800000D000D000D0CDB7DEB7CE0101960E94CF
:10109000C408BE016F5F7F4F80E892E00E94DB08CA
:1010A000613975408041910518F086E08093860291
:1010B00026960FB6F894DEBF0FBECDBFDF91CF915D
:1010C000089580918602833059F080F0853041F098
:1010D000D8F0863089F40E948B0910928602089518
:1010E00068EB7BE088E494EF0C945309813031F095
:1010F000823019F40C943E080895089562EC7BE068
:1011000088EB9BE00C94530968E474EF88EB9BE058
:101110000C9453091F920F920FB60F921124179A35
:10112000169890E42FEF30E782E021503040804065
:10113000E1F700C0000082B1805882B982B18927EE
:1011400082B9F0CFF1990895F19A809165008F7D71
:1011500080936500109221018FB7F89410922501B9
:101160001092240128EE33E03093290120932801C6
:101170008FBF109222011092200182E080937300B1
:101180008AE0809321010895EFB7F894209124011B
:101190003091250140918702509188026091890227
:1011A00070918A02EFBFFC01408351836283738395
:1011B0003583248308950F931F93CF93DF93FC010E
:1011C000EB01488159816A817B8180819181A28173
:1011D000B3819A01AB01281B390B4A0B5B0BA8EEBC
:1011E000B3E00E94901A4C815D8124813581FA011F
:1011F000E21BF30B8F01FF0F220B330B600F711FEC
:10120000821F931FDF91CF911F910F910895CF936C
:10121000DF93E5E6F0E08081877E8083A1E9B0E09E
:101220001C92E1EAF0E0108282EF809390008093BC
:10123000A000109292001092A2002FB7F894109282
:101240009500109294001092A5001092A4008FEFC8
:101250009FE190939700809396009093A7008093CE
:10126000A600909399008093980090939B008093A0
:101270009A009093A9008093A8009093AB0080936C
:10128000AA008DB188618DB9C1E0D1E08881886103
:10129000888381E883BD81E18C93808313BC2FBF59
:1012A000DF91CF91089597FD18C09F710FB6F89404
:1012B000109299001092980090939B0080939A004E
:1012C00077FD1BC07F711092A9001092A800709347
:1012D000AB006093AA000FBE089591958195910986
:1012E0009F710FB6F89410929B0010929A00909301
:1012F00099008093980077FFE5CF7195619571090A
:101300007F711092AB001092AA007093A9006093B5
:10131000A8000FBE08952FB7F8948FEF9FE1909328
:1013200099008093980090939B0080939A009093EB
:10133000A9008093A8009093AB008093AA002FBFD0
:10134000089520918D022F5F90918E022917E1F36D
:10135000E22FF0E0E757F84F808320938D0288EB6F
:101360008093C900089590918B0280918C02981708
:10137000D1F390918C029F5F9F77E92FF0E0E75FB8
:10138000F84F808190938C02089520918B02909168
:101390008C0281E02913089580E00895E5E6F0E0ED
:1013A00080818E7F80831092CD001092CC0080E4EB
:1013B0008093C80088E98093C90086E08093CA00C2
:1013C0000895CF93DF93882339F09FB7F89485B7BA
:1013D000806885BF85BF9FBF809164008E7F8093AA
:1013E000640010927A0080B7806880BFEBE8F8E074
:1013F00088EDDF011D928A95E9F7F0938A08E09362
:1014000089088FE080938E088EE08093D6088DE067
:1014100080931E09A3E6B9E08FE030E040E061E090
:1014200070E058E0982F9F709383982F9770292F22
:1014300020642183EB0102C0CC0FDD1F9A95E2F7F7
:1014400083FF09C03C2B5283E85BFF4FAE17BF07F9
:1014500041F08381E7CF4C2BE85BFF4FAE17BF070E
:10146000C1F740937E0030937D0080918C0880937B
:101470007C0080918D0880937B00F29ADF91CF9160
:101480000C94A20828E4829FC0011124FC01E557B6
:10149000F74F2FB7F89484819581A681B7812FBF2C
:1014A00025E0B695A795979587952A95D1F7089544
:1014B000EF92FF920F931F93CF93DF9300919102CE
:1014C000C0919302D0919402CE018B569D4F7C0126
:1014D0001091920209C09FEFE91AF90A082710E05B
:1014E0000E94C509882301F10E94B309111104C0AB
:1014F000813151F18B3251F1F70180832196C11571
:10150000F4E0DF0741F780919002816080939002C0
:1015100010E085E9E82E82E0F82EC0E0D0E000E09F
:101520000E94C5098111E0CF00939102D0939402EB
:10153000C0939302117010939202DF91CF911F918B
:101540000F91FF90EF90089511E0CACFC430D105FC
:10155000F0F090919502809196028927982F9295AC
:101560009F708F708927E09197029E2F92959F70B0
:101570008917D1F08091900284608093900225E9D0
:10158000E22E22E0F22EC0E0D0E000E0A9CF809170
:10159000900282608093900295E9E92E92E0F92E04
:1015A000C0E0D0E000E09CCF60919502709196027F
:1015B00024976C177D0769F0809190028860809372
:1015C000900235E9E32E32E0F32EC0E0D0E000E0F7
:1015D00087CF011115C0EF70F0E0EE0FFF1FEB5643
:1015E000F94F0190F081E02D3097B9F088E992E051
:1015F000099565E9E62E62E0F62EC0E0D0E070CFF6
:101600008091900280618093900245E9E42E42E04F
:10161000F42EC0E0D0E000E063CF809190028062C1
:101620008093900255E9E52E52E0F52EC0E0D0E01F
:1016300057CF80E2E5E9F6E0DF011D928A95E9F7F0
:101640000895E82FF0E0EE0FFF1FEB56F94F71837E
:1016500060830895CF92DF92EF92FF920F931F93D2
:10166000CF93DF93C82F6B017A01413109F460C039
:101670004B3209F45DC08E2D0E94A1098F2D81315E
:1016800009F452C08B3209F44FC08F2D0E94A1097A
:101690001F2D1E2520E1129FC0011124D12FD07FC4
:1016A000D827CF70DC2BD131D9F1DB32C9F18D2FA6
:1016B0000E94A109D127E114F104E1F08601EC0CAC
:1016C000FD1C07C08C2F0E94A109DC270E151F05E9
:1016D00089F0F801C1918F01C13111F0CB3291F73E
:1016E00081E10E94A1098C2F0E94A109DC270E151F
:1016F0001F0579F7D13181F0DB3271F08D2F0E9417
:10170000A1098BE2DF91CF911F910F91FF90EF9094
:10171000DF90CF900C94A10981E10E94A109EECF46
:1017200081E10E94A109C3CF81E10E94A109ADCF4F
:1017300081E10E94A1099FCF0F931F93CF93DF9365
:10174000CDB7DEB782E091E00E94AA1A8C01009723
:1017500019F12F81FC012193CF019E01265F3F4F9C
:101760004885598561E071E00E94D41B8130F1E029
:101770009F0774F041E051E0B80180E00E942A0B1D
:10178000C8010E94421BDF91CF911F910F910895D4
:10179000AC014F5F5F4FF0CF8091900280648093E7
:1017A0009002DF91CF911F910F9108950F931F9396
:1017B000CF93DF93CDB7DEB782E091E00E94AA1A03
:1017C0008C01009719F12F81FC012193CF019E011B
:1017D000265F3F4F4885598561E071E00E940D1CEE
:1017E0008130F1E09F0774F041E051E0B80180E002
:1017F0000E942A0BC8010E94421BDF91CF911F91CA
:101800000F910895AC014F5F5F4FF0CF8091900230
:10181000806480939002DF91CF911F910F91089582
:101820000E94C509811101C008950C94580ACF92F5
:10183000DF92EF92FF92CF93DF93EC01C880D980C3
:10184000EA80FB8020E030E0A901C701B6010E94D8
:101850000219181644F4C0922B02D0922C02E09286
:101860002D02F0922E028C8180932A028BEA91E065
:101870009F938F9382E08F930E94D60B0F900F90CF
:101880000F90DF91CF91FF90EF90DF90CF90089570
:101890002F923F924F925F926F927F928F929F9280
:1018A000AF92BF92CF92DF92EF92FF920F931F936E
:1018B000CF93DF93823008F4AAC05B01D82F109237
:1018C000DE068FEF9FEF90932902809328021092FB
:1018D000DD061092E8061092E3061092E4061092DC
:1018E000E5061092E6061092E7068091DF069091D9
:1018F000E006009711F00E94421B0D2F10E07801C6
:101900008FEFE81AF80AEE0CFF1CEE0CFF1CC70163
:101910000E94AA1A6C019093E0068093DF0600975C
:1019200009F475C0A701B5010E94CB1BD093DE0658
:101930000250104C000F111F000F111FE601C00FC5
:10194000D11F0C811D812E803F8088819981B80133
:10195000681B790B072E000C880B990B0E94D5177A
:101960002B013C018A819B81B101681B790B072EF9
:10197000000C880B990B0E94D5176B017C019B0111
:10198000AC01C301B2010E9415194B015C0120E0BA
:1019900030E040E251E460912B0270912C02809182
:1019A0002D0290912E020E94B619A50194010E9469
:1019B0002B174B015C019B01AC01C301B2010E94DA
:1019C000B6190E949D17600F711F79876887A5015E
:1019D0009401C701B6010E94B6190E949D17620DBD
:1019E000731D7B876A8781E0DF91CF911F910F91F3
:1019F000FF90EF90DF90CF90BF90AF909F908F902F
:101A00007F906F905F904F903F902F90089580E06F
:101A1000EBCFCF93DF93EC0188818823A1F0813055
:101A200009F462C0823009F452C0833009F471C0F5
:101A3000E091E106F091E2063097E9F06981888152
:101A4000DF91CF910994BE016E5F7F4F89810E9423
:101A5000480C811113C080E392E09F938F931F92F3
:101A60000E94D60B0F900F900F90E091E106F0913D
:101A7000E206309719F7DF91CF910895E091DF06E4
:101A8000F091E00687818F9386818F9385818F9374
:101A900084818F9383818F9382818F9381818F93B0
:101AA00080818F938091DE061F928F9385E092E074
:101AB0009F938F9382E08F930E94D60B8DB79EB732
:101AC0000D960FB6F8949EBF0FBE8DBFB1CF10928A
:101AD000E80622ED31E03F932F938F930E94D60BBF
:101AE0000F900F900F90A4CF9091DE06911103C03C
:101AF00083EF91E0B2CF8093E80682EE91E09F936E
:101B00008F9382E08F930E94D60B0F900F900F90CF
:101B10008FCF8FEF9FEF909329028093280210922E
:101B2000DD061092E8061092E3061092E406109289
:101B3000E5061092E6061092E70683EC91E0DFCF0F
:101B400069E07DE083E00E94210B67E17CE084E0B6
:101B50000C94210BFC016181728180810C94480CF2
:101B6000823009F1833051F0813009F0089590916D
:101B7000DE069923D9F38093E80608958FEF9FEF4F
:101B800090932902809328021092DD061092E806B5
:101B90001092E3061092E4061092E5061092E60613
:101BA0001092E70608951092E80608952F923F924A
:101BB0004F925F926F927F928F929F92AF92BF925D
:101BC000CF92DF92EF92FF920F931F93CF93DF9309
:101BD000CDB7DEB7ED970FB6F894DEBF0FBECDBF21
:101BE0002091E80629AB222309F439C2FC01808147
:101BF0009181A281B3818F8F98A3A9A3BAA32481D5
:101C00003581468157812BA33CA34DA35EA38091D0
:101C1000DD06882309F43DC24090D1065090D206DB
:101C20006090D3067090D4068091C5069091C60648
:101C3000A091C706B091C8068B8B9C8BAD8BBE8BD9
:101C40002091C1063091C2064091C3065091C4064E
:101C50002F87388B498B5A8B8091BD069091BE0699
:101C6000A091BF06B091C0068F8B988FA98FBA8FB5
:101C70000091E9061091EA06A090EB06B090EC0600
:101C80002091D9063091DA064091DB065091DC06AE
:101C900029833A834B835C838091D5069091D60645
:101CA000A091D706B091D8068D839E83AF83B88765
:101CB000A0912802B0912902B8ABAFA79D012F5F78
:101CC0003F4FE091DF06F091E006FE87ED87C90106
:101CD0000196AC01440F551F440F551F58A74FA341
:101CE0001901C090C906D090CA068091CB06909188
:101CF000CC069BAF8AAFB801110F880B990B0E94DD
:101D0000D5179B01AC016F8D78A189A19AA10E9482
:101D1000421669877A878B879C87B501BB0C880B35
:101D2000990B0E94D5179B01AC016BA17CA18DA1E1
:101D30009EA10E9442164B015C0129813A814B8190
:101D40005C810E94B6197B018C0129853A854B85FF
:101D50005C856D817E818F8198850E941018A3011A
:101D600092010E942B176BA77CA78DA79EA72B0122
:101D70003C0177FA709477F87094E984FA840B85C3
:101D80001C85A30192016D817E818F8198850E94BF
:101D900010180E94711A6B8F7C8F8D8F9E8F85011A
:101DA0007401A301920169817A818B819C810E94D7
:101DB00010180E94711A9B01AC016B8D7C8D8D8D6A
:101DC0009E8D0E9443166AAB7BAB8CAB9DAB2D8185
:101DD0003E814F81588569857A858B859C850E94D7
:101DE00042162B013C0129813A814B815C81C5015E
:101DF000B4010E9442164B015C012B893C894D893C
:101E00005E890E94B6197B018C01A30192016F8546
:101E1000788989899A890E9410182F89388D498D6F
:101E20005A8D0E942B176EAB7FAB88AF99AF20E025
:101E300030E0A9010E94021987FDFEC520E030E0D4
:101E400040E85FE36EA97FA988AD99AD0E94211794
:101E500018160CF0F6C5EFA5F8A9FAA7E9A7AD8505
:101E6000BE85EFA1F8A5AE0FBF1FF0912A02FB8F30
:101E70002091DE062FA3422F50E0588F4F8B1982FE
:101E8000BDAFACAF0AAD1BAD04C0CD84DE84098507
:101E90001A85F981FF5FF9832B8DF21708F028C2AC
:101EA0003FEF231A330A4F89588D241635060CF05C
:101EB0001FC28CAD9DAD04969DAF8CAFDC010D9023
:101EC000BC91A02DBE87AD87FC010280F381E02D7F
:101ED000FA87E987BD016C197D09072E000C880B74
:101EE000990B0E94D5174B015C0169857A85601BAF
:101EF000710B072E000C880B990B0E94D5176D8370
:101F00007E838F839887B601DD0C880B990B0E9426
:101F1000D5179B01AC016F8D78A189A19AA10E9470
:101F200042166F87788B898B9A8BB801110F880BBB
:101F3000990B0E94D5179B01AC016BA17CA18DA1CF
:101F40009EA10E9442166B8B7C8B8D8B9E8B9B017E
:101F5000AC016D817E818F8198850E94B6197B01CD
:101F60008C012F85388949895A89C501B4010E949D
:101F700010186B017C01C501B4010E94711A2B017C
:101F80003C016D817E818F8198850E94711A9B0131
:101F9000AC01C301B2010E9443169B01AC01C70111
:101FA000B6010E942B172B013C0120E030E0A90173
:101FB0000E94021987FD69CF20E030E040E85FE32E
:101FC000C301B2010E94211718160CF45ECF77FAF4
:101FD000709477F87094EF84F88809891A89A301BE
:101FE0009201C501B4010E9410180E94711A4B01A0
:101FF0005C01EB88FC880D891E89A30192016D812B
:102000007E818F8198850E9410180E94711A9B0111
:10201000AC01C501B4010E9443167B018C019B01F8
:10202000AC016AA97BA98CA99DA90E940219181666
:102030000CF02BCF3AA629A6EAAAFBAA0CAB1DAB43
:1020400024CF1092E80684E691E09F938F9382E07C
:102050008F930E94D60B0F900F900F9019AA89A909
:10206000ED960FB6F894DEBF0FBECDBFDF91CF91D6
:102070001F910F91FF90EF90DF90CF90BF90AF90A6
:102080009F908F907F906F905F904F903F902F9098
:10209000089581E08093DD06A091DF06B091E0060F
:1020A000BE87AD878D919D910D90BC91A02D8093A1
:1020B000ED069093EE06A093EF06B093F0068F879F
:1020C000988BEF85F889BF01FF0F880B990B0E9451
:1020D000D5172F8D38A149A15AA10E9442166D83B0
:1020E0007E838F8398876093D5067093D6068093FE
:1020F000D7069093D8068090EF069090F006B40132
:10210000092C000C880B990B0E94D5172BA13CA120
:102110004DA15EA10E94421669837A838B839C83C2
:102120006093D9067093DA068093DB069093DC0601
:102130006D817E818F8198850E94711A6B017C016F
:1021400069817A818B819C810E94711AA701960115
:102150000E9443162B013C016093D1067093D20676
:102160008093D3069093D4062AE037ED43E25CE3F4
:102170000E942117ED85FE8587FD73C384819581BB
:10218000A681B7818093C9069093CA06A093CB0617
:10219000B093CC066F8D78A189A19AA10E949D175A
:1021A0008B017093EA066093E9066BA17CA18DA177
:1021B0009EA10E949D175B017093EC066093EB0655
:1021C000209128023091290238AB2FA719013FEF47
:1021D000231A330AC1010196AC01440F551F440F65
:1021E000551F58A74FA38091C9069091CA069A8798
:1021F0008987BC01AF85B8896A1B7B0B072E000C51
:10220000880B990B0E94D5176F87788B898B9A8BD7
:102210006093C1067093C2068093C3069093C40670
:10222000E091CB06F091CC06FBAFEAAFBF01681995
:102230007909072E000C880B990B0E94D5176B8B20
:102240007C8B8D8B9E8B6093C5067093C6068093A6
:10225000C7069093C8066F85788989899A890E94F4
:10226000711A6B017C016B897C898D899E890E9422
:10227000711A9B01AC01C701B6010E9443166F8B16
:10228000788F898F9A8F6093BD067093BE06809376
:10229000BF069093C0060E94311A6093B9067093EE
:1022A000BA068093BB069093BC06C301B2010E949C
:1022B000311A9B01AC016093CD067093CE068093DA
:1022C000CF069093D00660912B0270912C028091E2
:1022D0002D0290912E020E942B176093B5067093E9
:1022E000B6068093B7069093B806C984DA8403CD06
:1022F00089A59AA5AF89B88D8A179B0709F43CC4B4
:1023000049A55AA58FA598A9841795070CF411C162
:10231000C090B506D090B606E090B706F090B8062B
:102320008F89988D0297EFA5F8A98E179F0709F45A
:1023300076C220E030E040E85FE36BA57CA58DA588
:102340009EA50E940219181644F420E030E040E8EF
:102350005FE32BA73CA74DA75EA7A70196016BA53E
:102360007CA58DA59EA50E9443164B015C0120E033
:1023700030E040E85FE30E94211718160CF030C4EB
:1023800020E030E040E85FE3C501B4010E9442165E
:102390002091CD063091CE064091CF065091D006C7
:1023A0000E94B6196B017C018090B9069090BA0624
:1023B000A090BB06B090BC06A50194010E94211715
:1023C000A501940118160CF08EC3C701B6010E9436
:1023D00042166B017C010091C9061091CA0620903B
:1023E000CB063090CC068FA48394912C3FEF831AB8
:1023F000930A880C991C880C991C8091DF06909197
:10240000E006880E991E4FA54E5F49835FA14517D0
:1024100088F080C0C701B6010E9442166B017C01A2
:10242000F981FF5FF98315010D851E852FA1F21734
:1024300008F070C084E0880E911CD4010D90BC910E
:10244000A02DBE87AD87F401A280B380BD01601BC3
:10245000710B072E000C880B990B0E94D5176D830A
:102460007E838F839887B50162197309072E000C4C
:10247000880B990B0E94D51769877A878B879C8771
:102480009B01AC016D817E818F8198850E94151919
:102490002B013C01A70196010E940219A3019201A0
:1024A00087FDB8CFC701B6010E942B174B015C0115
:1024B000B801110F880B990B0E94D5177B018C0175
:1024C000A50194016D817E818F8198850E941018ED
:1024D0002B013C01B101330C880B990B0E94D517DD
:1024E0007B018C01A501940169857A858B859C858A
:1024F0000E9410184092F1065092F2066092F30684
:102500007092F4066093F5067093F6068093F706D2
:102510009093F80639814FA13413A1CD87E391E060
:102520009F938F931F920E94D60B0F900F900F9046
:1025300096CD8F89988D0197A9A5BAA5A817B90737
:1025400009F47FCDBAA5BF93E9A5EF93F8A9FF934E
:102550002FA52F9381E492E09F938F9382E08F9336
:102560000E949C0BE091DF06F091E00689A59AA5F8
:10257000880F991F880F991FE80FF91F8091280273
:102580009091290201960FB6F894DEBF0FBECDBF21
:10259000A9A5BAA5A817B90709F4EBC1AF014C5F0B
:1025A0005F4F5E834D8380819181A281B38180934F
:1025B000E9069093EA06A093EB06B093EC068481BB
:1025C0009581A681B7818093ED069093EE06A09346
:1025D000EF06B093F006282E392E0091E9061091EF
:1025E000EA06B101601B710B072E000C880B990BDA
:1025F0000E94D5172B013C016093D5067093D60637
:102600008093D7069093D8068091EF069091F006BC
:102610009A878987A091EB06B091EC06BA83A983CB
:10262000BC016A1B7B0B072E000C880B990B0E94C8
:10263000D5176B017C016093D9067093DA068093FD
:10264000DB069093DC06C301B2010E94711A4B01B4
:102650005C01C701B6010E94711A9B01AC01C50162
:10266000B4010E9443164B015C016093D106709344
:10267000D2068093D3069093D406E981FA81BF01F4
:10268000FF0F880B990B0E94D5179B01AC016BA122
:102690007CA18DA19EA10E944216A70196010E94D5
:1026A000B6196B017C01B801110F880B990B0E94C0
:1026B000D5179B01AC016F8D78A189A19AA10E94C9
:1026C00042169B01AC0187017601C301B2010E9451
:1026D0001018A50194010E942B176BA77CA78DA74A
:1026E0009EA7C501B4010E94311A362F272F462F0D
:1026F000572FBC014093CD065093CE066093CF0672
:102700007093D006632F722F9B01AC0160912B0256
:1027100070912C0280912D0290912E020E942B1715
:102720006B017C016093B5067093B6068093B70683
:102730009093B806ED81FE8184819581A681B78151
:102740008093C9069093CA06A093CB06B093CC069B
:10275000BC0162197309072E000C880B990B0E94AB
:10276000D5172B013C016093C1067093C20680937C
:10277000C3069093C4066091CB067091CC06298560
:102780003A85621B730B072E000C880B990B0E9475
:10279000D5174B015C016093C5067093C606809304
:1027A000C7069093C806C301B2010E94711A2B019B
:1027B0003C01C501B4010E94711A9B01AC01C30127
:1027C000B2010E9443166093BD067093BE068093CB
:1027D000BF069093C0060E94311A6093B9067093A9
:1027E000BA068093BB069093BC0649A55AA55093A0
:1027F0002902409328025091DE065FA3852F90E0C6
:10280000988F8F8BA9A5BAA5B8ABAFA78F89988DE4
:102810000297EFA5F8A98E179F0709F08ACD81E0EE
:102820008093E3062BA53CA54DA55EA560E070E076
:1028300080E89FE30E9442169B01AC016091CD06A7
:102840007091CE068091CF069091D0060E94B61965
:102850006093E4067093E5068093E6069093E7069E
:1028600068CD80859185A285B3858093C9069093B4
:10287000CA06A093CB06B093CC0684819581A6812D
:10288000B7818093ED069093EE06A093EF06B09388
:10289000F00680819181A281B3818093E9069093B3
:1028A000EA06A093EB06B093EC064091ED0650913A
:1028B000EE06588B4F87082F192FBA01601B710B3A
:1028C000072E000C880B990B0E94D5176D837E8311
:1028D0008F8398876093D5067093D6068093D7062A
:1028E0009093D8068090EF069090F006A090EB06AB
:1028F000B090EC06B4016A197B09072E000C880B16
:10290000990B0E94D51769837A838B839C8360938C
:10291000D9067093DA068093DB069093DC066D810E
:102920007E818F8198850E94711A6B017C0169817B
:102930007A818B819C810E94711AA70196010E9465
:1029400043162B013C016093D1067093D20680930D
:10295000D3069093D406109229021092280288E0A0
:1029600090E098A78FA322242394312C18AA1FA6A5
:102970003ACC9F012C5F3F4F3E832D838091BD0653
:102980009091BE06A091BF06B091C0068093D1067B
:102990009093D206A093D306B093D40688E0E1ECDE
:1029A000F6E0A5EDB6E001900D928A95E1F78091F1
:1029B000ED069091EE06A091EF06B091F00680939F
:1029C000E9069093EA06A093EB06B093EC0680919B
:1029D000C9069091CA06A091CB06B091CC06582F9B
:1029E000492F8093ED069093EE06A093EF06B093E7
:1029F000F0066091B9067091BA068091BB0690917D
:102A0000BC068B019C010093CD061093CE0620934B
:102A1000CF063093D006252E342E4091EF065091EC
:102A2000F0065A8749872EA93FA948AD59AD2BA773
:102A30003CA74DA75EA768CEAFA5B8A9BAA7A9A71E
:102A40000ECA830172014EA85FA868AC79AC77FA10
:102A5000709477F87094A30192016F8578898989C1
:102A60009A890E9410180E94711A69837A838B8355
:102A70009C8385017401A30192016B897C898D89F6
:102A80009E890E9410180E94711A9B01AC016981F5
:102A90007A818B819C810E94431669837D83182FE4
:102AA000092F9B01482F592F6AA97BA98CA99DA9A1
:102AB0000E94021918160CF47FC020E030E040E8B4
:102AC0005FE36BA57CA58DA59EA50E940219181633
:102AD0000CF07BC03AA629A639813AAB4D814BABAD
:102AE0001CAB0DABBCC9C701B6010E942B174B0133
:102AF0005C016091ED067091EE06072E000C880BCC
:102B0000990B0E94D5177B018C016091C1067091D1
:102B1000C2068091C3069091C406A50194010E944B
:102B200010182B013C016091EF067091F006072E02
:102B3000000C880B990B0E94D5177B018C016091CA
:102B4000C5067091C6068091C7069091C806A5017A
:102B500094010E9410184092F1065092F206609281
:102B6000F3067092F4066093F5067093F606809370
:102B7000F7069093F80673CA88E791E09F938F93C6
:102B80001F920E94D60BB091DE06BFA3EB2FF0E0A0
:102B9000F88FEF8B209128023091290238AB2FA7B4
:102BA000C090B506D090B606E090B706F090B80693
:102BB0000F900F900F90B4CB3AA629A6F981FAABEB
:102BC0002D812BAB1CAB0DAB4AC92FA538A92F3FCC
:102BD0003F4F09F448C08FA598A99AA789A73FC974
:102BE0006091E9067091EA06072E000C880B990B9C
:102BF0000E94D5177B018C016091D5067091D60695
:102C00008091D7069091D806A50194010E941018D2
:102C10002B013C016091EB067091EC06072E000C35
:102C2000880B990B0E94D5177B018C016091D90606
:102C30007091DA068091DB069091DC06A501940183
:102C40000E9410184092F1065092F2066092F3062C
:102C50007092F4066093F5067093F6068093F7067B
:102C60009093F806FCC93AA629A659815AAB8D81E2
:102C70008BAB1CAB0DABF3C888EE96E0089589EFE3
:102C800096E008955058BB27AA270E945A160C9424
:102C9000B4180E947B1838F00E94821820F039F492
:102CA0009F3F19F426F40C9451180EF4E095E7FBBD
:102CB0000C943D18E92F0E94D91858F3BA176207EF
:102CC00073078407950720F079F4A6F50C94FB1898
:102CD0000EF4E0950B2EBA2FA02D0B01B901900137
:102CE0000C01CA01A0011124FF27591B99F0593F7B
:102CF00050F4503E68F11A16F040A22F232F342FC3
:102D00004427585FF3CF469537952795A795F04010
:102D10005395C9F77EF41F16BA0B620B730B840B25
:102D2000BAF09150A1F0FF0FBB1F661F771F881FDD
:102D3000C2F70EC0BA0F621F731F841F48F4879535
:102D400077956795B795F7959E3F08F0B0CF939527
:102D5000880F08F09927EE0F9795879508950E94A0
:102D60007B1860F080E891E009F49EEF0E948218E1
:102D700028F040E851E071F45EEF0CC00C9451185B
:102D80000C94FB18E92FE0780E94D91840F3092E23
:102D9000052AB1F3261737074807590738F00E2ED2
:102DA00007F8E02569F0E025E0640AC0EF6307F862
:102DB000009407FADB01B9019D01DC01CA01AD01F4
:102DC000EF930E9442170E94B4180E94F2165F917E
:102DD000552339F02BED3FE049E450FD49EC0C94CC
:102DE00043160895DF93DD27B92FBF7740E85FE3EF
:102DF0001616170648075B0718F4D92F0E94741996
:102E00009F938F937F936F930E94711AE4EEF0E08B
:102E10000E9454180E94B4182F913F914F915F91D6
:102E20000E94C919DD2351F09058A2EA2AED3FE033
:102E300049EC5FE3D0785D270E945A16DF910C942D
:102E4000B4180E94191808F481E008950E948B18A4
:102E5000E3950C94C5180E943F170C94B4180E9477
:102E6000821858F00E947B1840F029F45F3F29F047
:102E70000C943D1851110C94FC180C9451180E949C
:102E8000D91868F39923B1F3552391F3951B550B8A
:102E9000BB27AA2762177307840738F09F5F5F4F2D
:102EA000220F331F441FAA1FA9F335D00E2E3AF06C
:102EB000E0E832D091505040E695001CCAF72BD084
:102EC000FE2F29D0660F771F881FBB1F26173707D5
:102ED0004807AB07B0E809F0BB0B802DBF01FF2707
:102EE00093585F4F3AF09E3F510578F00C943D188F
:102EF0000C94FC185F3FE4F3983ED4F386957795E5
:102F00006795B795F7959F5FC9F7880F911D9695BF
:102F1000879597F90895E1E0660F771F881FBB1F1B
:102F2000621773078407BA0720F0621B730B840BC8
:102F3000BA0BEE1F88F7E09508950E94A4176894D5
:102F4000B1110C94FC1808950E94E11888F09F5765
:102F500098F0B92F9927B751B0F0E1F0660F771FBD
:102F6000881F991F1AF0BA95C9F714C0B13091F0B3
:102F70000E94FB18B1E008950C94FB18672F782F7E
:102F80008827B85F39F0B93FCCF386957795679578
:102F9000B395D9F73EF490958095709561957F4FE4
:102FA0008F4F9F4F0895E89409C097FB3EF490958A
:102FB0008095709561957F4F8F4F9F4F9923A9F012
:102FC000F92F96E9BB279395F695879577956795A1
:102FD000B795F111F8CFFAF4BB0F11F460FF1BC0E5
:102FE0006F5F7F4F8F4F9F4F16C0882311F096E978
:102FF00011C0772321F09EE8872F762F05C0662326
:1030000071F096E8862F70E060E02AF09A95660FDE
:10301000771F881FDAF7880F9695879597F9089597
:103020000E94C9199701A801AA270E945A160C9458
:10303000B418990F0008550FAA0BE0E8FEEF16161A
:103040001706E807F907C0F012161306E407F5079C
:1030500098F0621B730B840B950B39F40A2661F010
:10306000232B242B252B21F408950A2609F4A140B3
:10307000A6958FEF811D811D089597F99F6780E8C0
:1030800070E060E008959F3F31F0915020F4879503
:1030900077956795B795880F911D9695879597F9C0
:1030A00008959FEF80EC0895DF93CF931F930F93C4
:1030B000FF92EF92DF927B018C01689406C0DA2EBA
:1030C000EF010E94C919FE01E894A591259135915F
:1030D00045915591A6F3EF010E945A16FE01970102
:1030E000A801DA9469F7DF90EF90FF900F911F919C
:1030F000CF91DF91089500240A941616170618063A
:103100000906089500240A941216130614060506EB
:1031100008950C9451180E94E118D8F3E894E0E067
:10312000BB279F57F0F02AED3FE049EC06C0EE0FB9
:10313000BB0F661F771F881F28F0B23A620773071C
:10314000840728F0B25A620B730B840BE3959A95AF
:1031500072F7803830F49A95BB0F661F771F881F6F
:10316000D2F790480C944518092E0394000C11F4E2
:10317000882352F0BB0F40F4BF2B11F460FF04C052
:103180006F5F7F4F8F4F9F4F0895EF93E0FF07C012
:10319000A2EA2AED3FE049EC5FEB0E945A160E943A
:1031A000B4180F90039401FC9058E1E1F1E00C9405
:1031B0007C1A57FD9058440F551F59F05F3F71F02E
:1031C0004795880F97FB991F61F09F3F79F087958E
:1031D0000895121613061406551FF2CF4695F1DF17
:1031E00008C0161617061806991FF1CF86957105A7
:1031F000610508940895E894BB2766277727CB01DB
:1032000097F908950E94191808F48FEF08950E9405
:103210007B1829F00E94821811F00C9451180C941C
:103220003D18B901CA010C9443189F775F770E943B
:10323000D91868F39923A9F35523A9F3FF27951704
:1032400058F4E52FE91BED3060F75E3B10F0F1E438
:103250001CC09034E0F40AC0E92FE51BED3018F7EC
:103260009E3B10F0F1E411C0503488F4F9EA882351
:103270002AF09A95660F771F881FDAF744232AF001
:103280005A95220F331F441FDAF79F1B5F1BFF93D2
:103290001F930F93FF92EF9279018A01BB27AB2F07
:1032A0009B01AC010E94CC199701A801BF937B013F
:1032B0008C01AA27BA2FB901CA010E94CC19AF917B
:1032C0009701A801EF90FF900F911F910E945A164D
:1032D0000E94B4180E94311A4F9140FF089555275B
:1032E00047FD50950C9480199B01AC0160E070E0A3
:1032F00080E89FE30C942B170C943D180C94431812
:103300000E94E118D8F39923C9F3940F511DA3F338
:103310009150504094F059F0882332F0660F771F97
:10332000881F91505040C1F79E3F51052CF7880FE0
:10333000911D9695879597F908955F3FACF0983E5B
:103340009CF0BB27869577956795B79508F4B16093
:103350009395C1F7BB0F58F711F460FFE8CF6F5F8B
:103360007F4F8F4F9F4FE3CF0C94FC180E94C919D9
:103370000C94B4180E947B1838F00E94821820F038
:10338000952311F00C943D180C94511811240C94B1
:10339000FC180E94D91870F3959FC1F3950F50E067
:1033A000551F629FF001729FBB27F00DB11D639FF7
:1033B000AA27F00DB11DAA1F649F6627B00DA11D9D
:1033C000661F829F2227B00DA11D621F739FB00D43
:1033D000A11D621F839FA00D611D221F749F3327B3
:1033E000A00D611D231F849F600D211D822F762F4C
:1033F0006A2F11249F5750409AF0F1F088234AF029
:10340000EE0FFF1FBB1F661F771F881F9150504094
:10341000A9F79E3F510580F00C943D180C94FC18C0
:103420005F3FE4F3983ED4F3869577956795B7951B
:10343000F795E7959F5FC1F7FE2B880F911D969535
:10344000879597F908959F930E948B180F9007FC1A
:10345000EE5F0C94C51819F416F40C9451180C94E2
:1034600043180E94E118B8F39923C9F3B6F39F57A4
:10347000550B87FF0E94751A0024A0E640EA9001D0
:1034800080585695979528F4805C660F771F881FA3
:1034900020F026173707480730F4621B730B840BA4
:1034A000202931294A2BA6951794079420253125E8
:1034B0004A2758F7660F771F881F20F0261737070F
:1034C000480730F4620B730B840B200D311D411D36
:1034D000A09581F7B901842F9158880F969587950B
:1034E00008959B01AC010C94B61991505040660FA1
:1034F000771F881FD2F708959F938F937F936F93C1
:10350000FF93EF939B01AC010E94B619EF91FF91DD
:103510000E9454182F913F914F915F910C94B619CE
:103520000E949B1AA59F900DB49F900DA49F800DA3
:10353000911D11240895A29FB001B39FC001A39FC4
:10354000700D811D1124911DB29F700D811D1124DC
:10355000911D08950F931F93CF93DF9382309105B0
:1035600010F482E090E0E0916509F091660920E0B6
:1035700030E0A0E0B0E0309719F140815181028144
:10358000138148175907C8F08417950769F41097F5
:1035900031F012960C93129713961C9327C0009348
:1035A00065091093660922C02115310519F04217EB
:1035B000530718F49A01BD01EF01DF01F801DBCFD9
:1035C00021153105F9F0281B390B2430310580F421
:1035D0008A819B816115710521F0FB0193838283B0
:1035E00004C09093660980936509FE01329644C039
:1035F000FE01E20FF31F8193919322503109398329
:1036000028833AC02091630930916409232B41F447
:1036100020910202309103023093640920936309E0
:1036200020910002309101022115310541F42DB79E
:103630003EB74091040250910502241B350BE091E6
:103640006309F0916409E217F307A0F42E1B3F0B06
:103650002817390778F0AC014E5F5F4F2417350704
:1036600048F04E0F5F1F50936409409363098193A4
:10367000919302C0E0E0F0E0CF01DF91CF911F9184
:103680000F910895CF93DF93009709F481C0FC0157
:10369000329713821282A0916509B0916609109742
:1036A00081F420813181820F931F20916309309131
:1036B00064092817390751F5F0936409E093630909
:1036C00067C0ED0120E030E0CE17DF0740F44A810B
:1036D0005B819E0141155105F1F0EA01F5CFD383DD
:1036E000C28340815181840F951FC817D90759F4AF
:1036F00088819981840F951F0296918380838A81A6
:103700009B81938382832115310529F4F093660907
:10371000E09365093DC0E901FB83EA834991599132
:10372000C40FD51FEC17FD0761F480819181840FD0
:10373000951F0296E90199838883828193819B83F7
:103740008A83E0E0F0E012968D919C9113970097A8
:1037500019F0FD01DC01F7CF8D919C9111979D012E
:103760002E5F3F4F820F931F2091630930916409B0
:103770002817390769F4309729F4109266091092D6
:10378000650902C013821282B0936409A093630991
:10379000DF91CF910895FB01DC0102C001900D92F1
:1037A00041505040D8F708950F931F93CF93DF9364
:1037B000CDB7DEB72E970FB6F894DEBF0FBECDBFE4
:1037C0008C01FA0186E08C831A83098377FF02C09B
:1037D00060E070E8CB0101979E838D83A901BF0152
:1037E000CE0101960E94461C4D815E8157FD0AC0A4
:1037F0002F813885421753070CF49A01F801E20F24
:10380000F31F10822E960FB6F894DEBF0FBECDBF09
:10381000DF91CF911F910F9108950F931F93CF9335
:10382000DF93CDB7DEB72E970FB6F894DEBF0FBE8D
:10383000CDBF8C01FA018EE08C831A83098377FF58
:1038400002C060E070E8CB0101979E838D83A901DF
:10385000BF01CE0101960E94461C4D815E8157FD3D
:103860000AC02F813885421753070CF49A01F801DA
:10387000E20FF31F10822E960FB6F894DEBF0FBE34
:10388000CDBFDF91CF911F910F9108952F923F925D
:103890004F925F926F927F928F929F92AF92BF9260
:1038A000CF92DF92EF92FF920F931F93CF93DF930C
:1038B000CDB7DEB72B970FB6F894DEBF0FBECDBFE6
:1038C0006C017B018A01FC0117821682838181FFD2
:1038D000CCC1CE0101963C01F6019381F70193FD25
:1038E000859193FF81917F01882309F4BAC18532C4
:1038F00039F493FD859193FF81917F01853229F4FD
:10390000B60190E00E94661EE7CF912C212C312C4D
:10391000FFE1F315D8F08B3279F038F4803279F08A
:103920008332A1F4232D20611DC08D3261F08033DC
:1039300069F4232D216016C0832D8260382EE32D7B
:10394000E4603E2E2AC0F32DF8601DC037FC2DC068
:1039500020ED280F2A3040F08E32B9F436FC81C1B8
:10396000232D2064322E19C036FE06C08AE0989EB0
:10397000200D1124922E11C0EAE02E9E200D11245C
:10398000222EF32DF0623F2E08C08C3621F4832DB9
:103990008068382E02C0883641F4F70193FD859186
:1039A00093FF81917F018111B3CF982F9F7D955413
:1039B000933028F40C5F1F4F9FE399830DC083362B
:1039C00031F0833771F0833509F059C021C0F80117
:1039D000808189830E5F1F4F88248394912C53012B
:1039E00013C02801F2E04F0E511CF801A080B180F5
:1039F00036FE03C0692D70E002C06FEF7FEFC50196
:103A00000E945B1E4C018201F32DFF773F2E16C0F2
:103A1000280122E0420E511CF801A080B18036FE40
:103A200003C0692D70E002C06FEF7FEFC5010E94F7
:103A3000501E4C01F32DF0683F2E820133FC1BC059
:103A4000822D90E088169906B0F4B60180E290E0ED
:103A50000E94661E2A94F4CFF50137FC859137FE4B
:103A600081915F01B60190E00E94661E21102A94A8
:103A700021E0821A91088114910471F7E8C084361C
:103A800011F0893641F5F80137FE07C06081718178
:103A9000828193810C5F1F4F08C060817181072E66
:103AA000000C880B990B0E5F1F4FF32DFF763F2EF6
:103AB00097FF09C090958095709561957F4F8F4FC6
:103AC0009F4FF0683F2E2AE030E0A3010E94A21E23
:103AD000882E861845C0853731F4232D2F7EB22ECF
:103AE0002AE030E025C0932D997FB92E8F36C1F0A2
:103AF00018F4883579F0B5C0803719F0883721F08F
:103B0000B0C0E92FE061BE2EB4FE0DC0FB2DF46005
:103B1000BF2E09C034FE0AC0292F2660B22E06C06F
:103B200028E030E005C020E130E002C020E132E0D2
:103B3000F801B7FE07C060817181828193810C5FBB
:103B40001F4F06C06081718180E090E00E5F1F4FC3
:103B5000A3010E94A21E882E8618FB2DFF773F2E00
:103B600036FE0DC0232D2E7FA22E891458F434FE6C
:103B70000BC032FC09C0832D8E7EA82E05C0B82C48
:103B8000A32C03C0B82C01C0B92CA4FE0FC0FE01A9
:103B9000E80DF11D8081803321F49A2D997EA92EA4
:103BA00009C0A2FE06C0B394B39404C08A2D8678DF
:103BB00009F0B394A3FC11C0A0FE06C0B21488F4AF
:103BC000280C922C9B180EC0B21460F4B60180E24F
:103BD00090E00E94661EB394F7CFB21418F42B182D
:103BE00002C0982C212CA4FE10C0B60180E390E006
:103BF0000E94661EA2FE17C0A1FC03C088E790E0E9
:103C000002C088E590E0B6010CC08A2D867859F094
:103C1000A1FE02C08BE201C080E2A7FC8DE2B601EA
:103C200090E00E94661E891438F4B60180E390E0AB
:103C30000E94661E9A94F7CF8A94F301E80DF11D55
:103C40008081B60190E00E94661E8110F5CF22208F
:103C500009F442CEB60180E290E00E94661E2A94EA
:103C6000F6CFF6018681978102C08FEF9FEF2B96EA
:103C70000FB6F894DEBF0FBECDBFDF91CF911F917D
:103C80000F91FF90EF90DF90CF90BF90AF909F90FB
:103C90008F907F906F905F904F903F902F900895FE
:103CA000FC010590615070400110D8F78095909507
:103CB0008E0F9F1F0895FC0161507040019001100C
:103CC000D8F7809590958E0F9F1F08950F931F939F
:103CD000CF93DF93FB01238121FD03C08FEF9FEF83
:103CE0002CC022FF16C0468157812481358142179E
:103CF000530744F4A081B1819D012F5F3F4F318371
:103D000020838C93268137812F5F3F4F3783268313
:103D100014C08B01EC01FB010084F185E02D0995B5
:103D2000892BE1F6D80116968D919C9117970196F3
:103D300017969C938E931697CE01DF91CF911F918A
:103D40000F910895FA01AA27283051F1203181F10D
:103D5000E8946F936E7F6E5F7F4F8F4F9F4FAF4F93
:103D6000B1E03ED0B4E03CD0670F781F891F9A1FA6
:103D7000A11D680F791F8A1F911DA11D6A0F711D5A
:103D8000811D911DA11D20D009F468943F912AE066
:103D9000269F11243019305D3193DEF6CF0108954E
:103DA000462F4770405D4193B3E00FD0C9F7F6CF7F
:103DB000462F4F70405D4A3318F0495D31FD405247
:103DC000419302D0A9F7EACFB4E0A69597958795DD
:103DD00077956795BA95C9F70097610571050895BC
:103DE0009B01AC010A2E0694579547953795279568
:103DF000BA95C9F7620F731F841F951FA01D089500
:043E0000F894FFCF64
:103E0400000067092000F6FF000000000000000029
:103E1400DB0FC93F000006431B7E223E000000006A
:103E2400000000000000FFFFFFFF050000803F725C
:103E340065636569766564202575206279746573A8
:103E440000537769746368696E672066726F6D20CA
:103E54007365676D656E7420256920746F2025690C
:023E640000005C
:00000001FF
